S00F0000456D6265644D4C2E737265639F
S113000045C0000060C000005EC000005CC000008D
S11300105AC0000058C0000056C0000054C0000080
S113002052C0000050C000004EC000004CC0000090
S11300304AC0000048C0000046C0000044C00000A0
S113004042C0000040C000003EC000003CC00000B0
S11300503AC0000038C0000036C0000034C00000C0
S113006032C0000030C000002EC000002CC00000D0
S11300702AC0000028C0000026C0000024C00000E0
S113008022C0000020C000001EC0000011241FBEBA
S1130090CFEFD0E4DEBFCDBF11E0A0E0B1E0E2EDF0
S11300A0F6E000E00BBF02C007900D92A630B10746
S11300B0D9F721E0A6E0B1E001C01D92AA30B20751
S11300C0E1F79DD004C39CCF882311F0419A089591
S11300D04198089540980895409A0895429A089541
S11300E04298089587E187B981E188B90895AF926C
S11300F0BF92CF92DF92EF92FF920F931F93CF9311
S1130100DF9300D000D0CDB7DEB7F62E29833A8333
S11301104B835C83DFDF07E010E0EE24E394D12C13
S11301208E2D0130110509F08D2DCEDFD7DFD8DFFC
S113013001501109A8F707E110E0CC24C394D12C95
S1130140C601002E02C0880F991F0A94E2F78F217E
S1130150BBDFC4DFC5DF0150110990F7FE01319602
S11301607F015E01F5E0AF0EB11CCC24C394D12C09
S113017018C0C601002E02C0880F991F0A94E2F726
S1130180F70190818923A0DFA9DFAADF0F5F1F4F4A
S11301900830110571F7FFEFEF1AFF0AAE14BF0420
S11301A019F000E010E0E5CF97DF0F900F900F906B
S11301B00F90DF91CF911F910F91FF90EF90DF90FF
S11301C0CF90BF90AF90089517B80895882359F041
S11301D022B181E090E002C0880F991F6A95E2F78E
S11301E0822B82B9089522B181E090E002C0880F89
S11301F0991F6A95E2F78095822382B90895CF9278
S1130200DF92EF92FF92CF93DF9383E081B96ADFAD
S113021080E49CE03BD17C01C0E0D0E0BE0170787A
S113022077232CF4615071097F6F6F5F7F4F072E26
S1130230000C880B990B9ED020E030E04FE753E48C
S11302402FD0F70161937193819391937F0121964C
S1130250C031F3E0DF0711F7C12CD12C76012AE974
S113026039E949E15FE3C701B60141DF84E0C80E23
S1130270D11CE11CF11CE0E4CE16EDE0DE06E3E067
S1130280EE06F10461F7A0DF60E081E09FDF80E02B
S113029090E0DF91CF91FF90EF90DF90CF900895A1
S11302A00CD0BAC0B2D040F0A9D030F021F45F3FF6
S11302B019F09BC05111E4C09EC0BFD098F399239C
S11302C0C9F35523B1F3951B550BBB27AA27621716
S11302D07307840738F09F5F5F4F220F331F441F5B
S11302E0AA1FA9F333D00E2E3AF0E0E830D0915093
S11302F05040E695001CCAF729D0FE2F27D0660F80
S1130300771F881FBB1F261737074807AB07B0E8BE
S113031009F0BB0B802DBF01FF2793585F4F2AF0D4
S11303209E3F510568F061C0ABC05F3FECF3983E5F
S1130330DCF3869577956795B795F7959F5FC9F731
S1130340880F911D9695879597F90895E1E0660FBA
S1130350771F881FBB1F621773078407BA0720F033
S1130360621B730B840BBA0BEE1F88F7E09508959C
S1130370E89409C097FB3EF490958095709561953B
S11303807F4F8F4F9F4F9923A9F0F92F96E9BB27F1
S11303909395F695879577956795B795F111F8CF6D
S11303A0FAF4BB0F11F460FF1BC06F5F7F4F8F4FD8
S11303B09F4F16C0882311F096E911C0772321F0CE
S11303C09EE8872F762F05C0662371F096E8862F66
S11303D070E060E02AF09A95660F771F881FDAF7BD
S11303E0880F9695879597F9089597F99F6780E800
S11303F070E060E008959FEF80EC089500240A9473
S11304001616170618060906089500240A941216EB
S11304101306140605060895092E0394000C11F41E
S1130420882352F0BB0F40F4BF2B11F460FF04C0CB
S11304306F5F7F4F8F4F9F4F089557FD9058440F24
S1130440551F59F05F3F71F04795880F97FB991F2F
S113045061F09F3F79F087950895121613061406EC
S1130460551FF2CF4695F1DF08C016161706180679
S1130470991FF1CF86957105610508940895E89454
S1130480BB2766277727CB0197F908950F931F930E
S1130490CF93DF938230910510F482E090E0E091F5
S11304A00801F091090120E030E0A0E0B0E03097CD
S11304B019F1408151810281138148175907C8F00D
S11304C08417950769F4109731F012960C931297DC
S11304D013961C9327C0009308011093090122C0AE
S11304E02115310519F04217530718F49A01BD017B
S11304F0EF01DF01F801DBCF21153105F9F0281BED
S1130500390B2430310580F48A819B816115710592
S113051021F0FB019383828304C0909309018093AB
S11305200801FE01329644C0FE01E20FF31F8193DD
S1130530919322503109398328833AC020910601CE
S113054030910701232B41F42091020130910301E2
S1130550309307012093060120910001309101019D
S11305602115310541F42DB73EB740910401509156
S11305700501241B350BE0910601F0910701E217F8
S1130580F307A0F42E1B3F0B2817390778F0AC01B2
S11305904E5F5F4F2417350748F04E0F5F1F50938F
S11305A00701409306018193919302C0E0E0F0E0DB
S11305B0CF01DF91CF911F910F910895CF93DF93D6
S11305C0009709F481C0FC01329713821282A09132
S11305D00801B0910901109781F420813181820FC3
S11305E0931F20910601309107012817390751F50F
S11305F0F0930701E093060167C0ED0120E030E0CD
S1130600CE17DF0740F44A815B819E0141155105F5
S1130610F1F0EA01F5CFD383C28340815181840F85
S1130620951FC817D90759F488819981840F951F9C
S11306300296918380838A819B819383828321158F
S1130640310529F4F0930901E09308013DC0E90163
S1130650FB83EA8349915991C40FD51FEC17FD0719
S113066061F480819181840F951F0296E901998339
S11306708883828193819B838A83E0E0F0E01296F1
S11306808D919C911397009719F0FD01DC01F7CF30
S11306908D919C9111979D012E5F3F4F820F931F67
S11306A020910601309107012817390769F4309722
S11306B029F4109209011092080102C013821282D7
S11306C0B0930701A0930601DF91CF910895F894A8
S10506D0FFCF56
S10906D200000A012000F3
S9030000FC
