S00F0000456D6265644D4C2E737265639F
S113000045C0000060C000005EC000005CC000008D
S11300105AC0000058C0000056C0000054C0000080
S113002052C0000050C000004EC000004CC0000090
S11300304AC0000048C0000046C0000044C00000A0
S113004042C0000040C000003EC000003CC00000B0
S11300503AC0000038C0000036C0000034C00000C0
S113006032C0000030C000002EC000002CC00000D0
S11300702AC0000028C0000026C0000024C00000E0
S113008022C0000020C000001EC0000011241FBEBA
S1130090CFEFD0E4DEBFCDBF11E0A0E0B1E0E8E9EE
S11300A0F3E000E00BBF02C007900D92A030B1074F
S11300B0D9F721E0A0E0B1E001C01D92A030B20761
S11300C0E1F714D167C19CCF882311F0419A0895B8
S11300D04198089540980895409A0895429A089541
S11300E042980895389A399A3A9A3B98F5CF0895E8
S11300F08F929F92AF92BF92DF92EF92FF920F93F3
S11301001F93CF93DF93F62ED42E48015901E2DFDB
S113011081E090E09BD0C6E0D0E001C02197209719
S113012029F481E0D1DFDADFDBDFF8CF80E0CCDF58
S1130130D5DFD6DFDD2394F7C7E1D0E001E010E09E
S1130140C8010C2E02C0880F991F0A94E2F78F2170
S1130150BBDFC4DFC5DF219798F7181419041A040C
S11301601B04E4F022C0C8010C2E02C0880F991FA2
S11301700A94E2F78D21A8DFB1DFB2DF219798F767
S11301802FEFE21AF20AC7010F2C000CAA0BBB0BCB
S113019088159905AA05BB052CF007C0E12CF12CA4
S11301A001E010E0C7E0D0E0DECF96DFDF91CF9131
S11301B01F910F91FF90EF90DF90BF90AF909F90B1
S11301C08F900895EF92FF921F93CF93DF93162F92
S11301D081DFC7E0D0E0C230D1051CF481E074DFD8
S11301E002C080E071DF7ADF7BDF2197A0F7C7E1EF
S11301F0D0E0EE24E394F12CC7010C2E02C0880F4A
S1130200991F0A94E2F781235FDF68DF69DF219792
S113021098F7C7E0D0E010E0EE24E394F12C339B90
S113022008C0C7010C2E02C0880F991F0A94E2F778
S1130230182B54DF55DF219790F74EDF812FDF9184
S1130240CF911F91FF90EF900895089522E025BD6E
S113025026EF04C026BDA89AA89BFECF0197D0F72D
S113026015BC0895882359F022B181E090E002C0C2
S1130270880F991F6A95E2F7822B82B9089522B1FB
S113028081E090E002C0880F991F6A95E2F780959B
S1130290822382B90895FF920F931F93CF93DF9324
S11302A0F82EC7E0D0E001E010E060E081E0DADFA2
S11302B0C8010C2E02C0880F991F0A94E2F761E06E
S11302C08F21D0DF88EB9BE0C1DF60E080E0CADFF4
S11302D061E080E0C7DF88EB9BE0B8DF219728F777
S11302E0DF91CF911F910F91FF900895CF92DF92EC
S11302F0EF92FF920F931F9383E081B9F3DE87E1BE
S113030087B981E188B980E49FE1A0DF06E010E0CD
S113031020E030E045E065E170E080E090E0E8DE78
S113032002E010E020E030E043E066E170E080E0CD
S113033090E0DEDE88E893E189DF65E170E080E04B
S113034090E040DF66E170E080E090E03BDF0F2E5C
S1130350F5E1CF2ED12CE12CF12CF02DC701B60103
S113036031DF99DF80E797E171DF8FEFC81AD80A90
S1130370E80AF80A8BE1C816D104E104F10471F724
S113038064DF80E090E01F910F91FF90EF90DF9089
S10B0390CF900895F894FFCF0B
S9030000FC
